{
  "address": "0xCf7Ed3AccA5a467e9e704C703E8D87F634fB0Fc9",
  "abi": [
    {
      "inputs": [
        {
          "internalType": "address",
          "name": "vrfCoordinatorV2",
          "type": "address"
        },
        {
          "internalType": "uint64",
          "name": "subscriptionId",
          "type": "uint64"
        },
        {
          "internalType": "bytes32",
          "name": "gasLane",
          "type": "bytes32"
        },
        {
          "internalType": "uint32",
          "name": "callBackGasLimit",
          "type": "uint32"
        },
        {
          "internalType": "string[3]",
          "name": "dogTokenUris",
          "type": "string[3]"
        },
        {
          "internalType": "uint256",
          "name": "mintFee",
          "type": "uint256"
        }
      ],
      "stateMutability": "nonpayable",
      "type": "constructor"
    },
    {
      "inputs": [
        {
          "internalType": "address",
          "name": "have",
          "type": "address"
        },
        {
          "internalType": "address",
          "name": "want",
          "type": "address"
        }
      ],
      "name": "OnlyCoordinatorCanFulfill",
      "type": "error"
    },
    {
      "inputs": [],
      "name": "RandomIpfsNft__NeedsMoreEthSent",
      "type": "error"
    },
    {
      "inputs": [],
      "name": "RandomIpfsNft__RangeOutOfBounds",
      "type": "error"
    },
    {
      "inputs": [],
      "name": "RandomIpfsNft__TransferFailed",
      "type": "error"
    },
    {
      "anonymous": false,
      "inputs": [
        {
          "indexed": true,
          "internalType": "address",
          "name": "owner",
          "type": "address"
        },
        {
          "indexed": true,
          "internalType": "address",
          "name": "approved",
          "type": "address"
        },
        {
          "indexed": true,
          "internalType": "uint256",
          "name": "tokenId",
          "type": "uint256"
        }
      ],
      "name": "Approval",
      "type": "event"
    },
    {
      "anonymous": false,
      "inputs": [
        {
          "indexed": true,
          "internalType": "address",
          "name": "owner",
          "type": "address"
        },
        {
          "indexed": true,
          "internalType": "address",
          "name": "operator",
          "type": "address"
        },
        {
          "indexed": false,
          "internalType": "bool",
          "name": "approved",
          "type": "bool"
        }
      ],
      "name": "ApprovalForAll",
      "type": "event"
    },
    {
      "anonymous": false,
      "inputs": [
        {
          "indexed": false,
          "internalType": "enum RandomIpfsNft.Breed",
          "name": "dogBreed",
          "type": "uint8"
        },
        {
          "indexed": false,
          "internalType": "address",
          "name": "minter",
          "type": "address"
        }
      ],
      "name": "NftMinted",
      "type": "event"
    },
    {
      "anonymous": false,
      "inputs": [
        {
          "indexed": true,
          "internalType": "uint256",
          "name": "requestId",
          "type": "uint256"
        },
        {
          "indexed": false,
          "internalType": "address",
          "name": "requester",
          "type": "address"
        }
      ],
      "name": "NftRequested",
      "type": "event"
    },
    {
      "anonymous": false,
      "inputs": [
        {
          "indexed": true,
          "internalType": "address",
          "name": "previousOwner",
          "type": "address"
        },
        {
          "indexed": true,
          "internalType": "address",
          "name": "newOwner",
          "type": "address"
        }
      ],
      "name": "OwnershipTransferred",
      "type": "event"
    },
    {
      "anonymous": false,
      "inputs": [
        {
          "indexed": true,
          "internalType": "address",
          "name": "from",
          "type": "address"
        },
        {
          "indexed": true,
          "internalType": "address",
          "name": "to",
          "type": "address"
        },
        {
          "indexed": true,
          "internalType": "uint256",
          "name": "tokenId",
          "type": "uint256"
        }
      ],
      "name": "Transfer",
      "type": "event"
    },
    {
      "inputs": [
        {
          "internalType": "address",
          "name": "to",
          "type": "address"
        },
        {
          "internalType": "uint256",
          "name": "tokenId",
          "type": "uint256"
        }
      ],
      "name": "approve",
      "outputs": [],
      "stateMutability": "nonpayable",
      "type": "function"
    },
    {
      "inputs": [
        {
          "internalType": "address",
          "name": "owner",
          "type": "address"
        }
      ],
      "name": "balanceOf",
      "outputs": [
        {
          "internalType": "uint256",
          "name": "",
          "type": "uint256"
        }
      ],
      "stateMutability": "view",
      "type": "function"
    },
    {
      "inputs": [
        {
          "internalType": "uint256",
          "name": "tokenId",
          "type": "uint256"
        }
      ],
      "name": "getApproved",
      "outputs": [
        {
          "internalType": "address",
          "name": "",
          "type": "address"
        }
      ],
      "stateMutability": "view",
      "type": "function"
    },
    {
      "inputs": [
        {
          "internalType": "uint256",
          "name": "moddedRng",
          "type": "uint256"
        }
      ],
      "name": "getBreedFromModdedRng",
      "outputs": [
        {
          "internalType": "enum RandomIpfsNft.Breed",
          "name": "",
          "type": "uint8"
        }
      ],
      "stateMutability": "pure",
      "type": "function"
    },
    {
      "inputs": [],
      "name": "getChanceArray",
      "outputs": [
        {
          "internalType": "uint256[3]",
          "name": "",
          "type": "uint256[3]"
        }
      ],
      "stateMutability": "pure",
      "type": "function"
    },
    {
      "inputs": [
        {
          "internalType": "uint256",
          "name": "index",
          "type": "uint256"
        }
      ],
      "name": "getDogTokenUris",
      "outputs": [
        {
          "internalType": "string",
          "name": "",
          "type": "string"
        }
      ],
      "stateMutability": "view",
      "type": "function"
    },
    {
      "inputs": [],
      "name": "getMintFee",
      "outputs": [
        {
          "internalType": "uint256",
          "name": "",
          "type": "uint256"
        }
      ],
      "stateMutability": "view",
      "type": "function"
    },
    {
      "inputs": [],
      "name": "getTokenCounter",
      "outputs": [
        {
          "internalType": "uint256",
          "name": "",
          "type": "uint256"
        }
      ],
      "stateMutability": "view",
      "type": "function"
    },
    {
      "inputs": [
        {
          "internalType": "address",
          "name": "owner",
          "type": "address"
        },
        {
          "internalType": "address",
          "name": "operator",
          "type": "address"
        }
      ],
      "name": "isApprovedForAll",
      "outputs": [
        {
          "internalType": "bool",
          "name": "",
          "type": "bool"
        }
      ],
      "stateMutability": "view",
      "type": "function"
    },
    {
      "inputs": [],
      "name": "name",
      "outputs": [
        {
          "internalType": "string",
          "name": "",
          "type": "string"
        }
      ],
      "stateMutability": "view",
      "type": "function"
    },
    {
      "inputs": [],
      "name": "owner",
      "outputs": [
        {
          "internalType": "address",
          "name": "",
          "type": "address"
        }
      ],
      "stateMutability": "view",
      "type": "function"
    },
    {
      "inputs": [
        {
          "internalType": "uint256",
          "name": "tokenId",
          "type": "uint256"
        }
      ],
      "name": "ownerOf",
      "outputs": [
        {
          "internalType": "address",
          "name": "",
          "type": "address"
        }
      ],
      "stateMutability": "view",
      "type": "function"
    },
    {
      "inputs": [
        {
          "internalType": "uint256",
          "name": "requestId",
          "type": "uint256"
        },
        {
          "internalType": "uint256[]",
          "name": "randomWords",
          "type": "uint256[]"
        }
      ],
      "name": "rawFulfillRandomWords",
      "outputs": [],
      "stateMutability": "nonpayable",
      "type": "function"
    },
    {
      "inputs": [],
      "name": "renounceOwnership",
      "outputs": [],
      "stateMutability": "nonpayable",
      "type": "function"
    },
    {
      "inputs": [],
      "name": "requestNft",
      "outputs": [
        {
          "internalType": "uint256",
          "name": "requestId",
          "type": "uint256"
        }
      ],
      "stateMutability": "payable",
      "type": "function"
    },
    {
      "inputs": [
        {
          "internalType": "address",
          "name": "from",
          "type": "address"
        },
        {
          "internalType": "address",
          "name": "to",
          "type": "address"
        },
        {
          "internalType": "uint256",
          "name": "tokenId",
          "type": "uint256"
        }
      ],
      "name": "safeTransferFrom",
      "outputs": [],
      "stateMutability": "nonpayable",
      "type": "function"
    },
    {
      "inputs": [
        {
          "internalType": "address",
          "name": "from",
          "type": "address"
        },
        {
          "internalType": "address",
          "name": "to",
          "type": "address"
        },
        {
          "internalType": "uint256",
          "name": "tokenId",
          "type": "uint256"
        },
        {
          "internalType": "bytes",
          "name": "data",
          "type": "bytes"
        }
      ],
      "name": "safeTransferFrom",
      "outputs": [],
      "stateMutability": "nonpayable",
      "type": "function"
    },
    {
      "inputs": [
        {
          "internalType": "address",
          "name": "operator",
          "type": "address"
        },
        {
          "internalType": "bool",
          "name": "approved",
          "type": "bool"
        }
      ],
      "name": "setApprovalForAll",
      "outputs": [],
      "stateMutability": "nonpayable",
      "type": "function"
    },
    {
      "inputs": [
        {
          "internalType": "bytes4",
          "name": "interfaceId",
          "type": "bytes4"
        }
      ],
      "name": "supportsInterface",
      "outputs": [
        {
          "internalType": "bool",
          "name": "",
          "type": "bool"
        }
      ],
      "stateMutability": "view",
      "type": "function"
    },
    {
      "inputs": [],
      "name": "symbol",
      "outputs": [
        {
          "internalType": "string",
          "name": "",
          "type": "string"
        }
      ],
      "stateMutability": "view",
      "type": "function"
    },
    {
      "inputs": [
        {
          "internalType": "uint256",
          "name": "tokenId",
          "type": "uint256"
        }
      ],
      "name": "tokenURI",
      "outputs": [
        {
          "internalType": "string",
          "name": "",
          "type": "string"
        }
      ],
      "stateMutability": "view",
      "type": "function"
    },
    {
      "inputs": [
        {
          "internalType": "address",
          "name": "from",
          "type": "address"
        },
        {
          "internalType": "address",
          "name": "to",
          "type": "address"
        },
        {
          "internalType": "uint256",
          "name": "tokenId",
          "type": "uint256"
        }
      ],
      "name": "transferFrom",
      "outputs": [],
      "stateMutability": "nonpayable",
      "type": "function"
    },
    {
      "inputs": [
        {
          "internalType": "address",
          "name": "newOwner",
          "type": "address"
        }
      ],
      "name": "transferOwnership",
      "outputs": [],
      "stateMutability": "nonpayable",
      "type": "function"
    },
    {
      "inputs": [],
      "name": "withdraw",
      "outputs": [],
      "stateMutability": "nonpayable",
      "type": "function"
    }
  ],
  "transactionHash": "0xca5845f2fd2042b6fab5beba0e576c913805b2fdbcf54f65c28e6d0c2143ec6e",
  "args": [
    "0x5FbDB2315678afecb367f032d93F642f64180aa3",
    "1",
    "0x79d3d8832d904592c0bf9818b621522c988bb8b0c05cdc3b15aea1b6e8db0c15",
    "500000",
    [
      "ipfs://QmaVkBn2tKmjbhphU7eyztbvSQU5EXDdqRyXZtRhSGgJGo",
      "ipfs://QmYQC5aGZu2PTH8XzbJrbDnvhj3gVs7ya33H9mqUNvST3d",
      "ipfs://QmZYmH5iDbD6v3U2ixoVAjioSzvWJszDzYdbeCLquGSpVm"
    ],
    "10000000000000000"
  ],
  "numDeployments": 1,
  "solcInputHash": "1615aecb34c551f7c208bbd6a9add299",
  "bytecode": "0x6101406040523480156200001257600080fd5b5060405162004486380380620044868339818101604052810190620000389190620005d7565b6040518060400160405280600d81526020017f52616e646f6d497066734e6674000000000000000000000000000000000000008152506040518060400160405280600381526020017f52494e0000000000000000000000000000000000000000000000000000000000815250878073ffffffffffffffffffffffffffffffffffffffff1660808173ffffffffffffffffffffffffffffffffffffffff1660601b81525050508160009080519060200190620000f59291906200029e565b5080600190805190602001906200010e9291906200029e565b5050506200013162000125620001d060201b60201c565b620001d860201b60201c565b8573ffffffffffffffffffffffffffffffffffffffff1660a08173ffffffffffffffffffffffffffffffffffffffff1660601b815250508467ffffffffffffffff1660c08167ffffffffffffffff1660c01b815250508360e081815250508263ffffffff166101008163ffffffff1660e01b81525050816009906003620001ba9291906200032f565b5080610120818152505050505050505062000932565b600033905090565b6000600760009054906101000a900473ffffffffffffffffffffffffffffffffffffffff16905081600760006101000a81548173ffffffffffffffffffffffffffffffffffffffff021916908373ffffffffffffffffffffffffffffffffffffffff1602179055508173ffffffffffffffffffffffffffffffffffffffff168173ffffffffffffffffffffffffffffffffffffffff167f8be0079c531659141344cd1fd0a4f28419497f9722a3daafe3b4186f6b6457e060405160405180910390a35050565b828054620002ac90620007bc565b90600052602060002090601f016020900481019282620002d057600085556200031c565b82601f10620002eb57805160ff19168380011785556200031c565b828001600101855582156200031c579182015b828111156200031b578251825591602001919060010190620002fe565b5b5090506200032b919062000396565b5090565b82805482825590600052602060002090810192821562000383579160200282015b8281111562000382578251829080519060200190620003719291906200029e565b509160200191906001019062000350565b5b509050620003929190620003b5565b5090565b5b80821115620003b157600081600090555060010162000397565b5090565b5b80821115620003d95760008181620003cf9190620003dd565b50600101620003b6565b5090565b508054620003eb90620007bc565b6000825580601f10620003ff575062000420565b601f0160209004906000526020600020908101906200041f919062000396565b5b50565b60006200043a6200043484620006bb565b62000692565b905080828560208602820111156200045757620004566200088b565b5b60005b85811015620004ac57815167ffffffffffffffff81111562000481576200048062000886565b5b8086016200049089826200055f565b855260208501945060208401935050506001810190506200045a565b5050509392505050565b6000620004cd620004c784620006e4565b62000692565b905082815260208101848484011115620004ec57620004eb62000890565b5b620004f984828562000786565b509392505050565b6000815190506200051281620008b0565b92915050565b600082601f83011262000530576200052f62000886565b5b60036200053f84828562000423565b91505092915050565b6000815190506200055981620008ca565b92915050565b600082601f83011262000577576200057662000886565b5b815162000589848260208601620004b6565b91505092915050565b600081519050620005a381620008e4565b92915050565b600081519050620005ba81620008fe565b92915050565b600081519050620005d18162000918565b92915050565b60008060008060008060c08789031215620005f757620005f66200089a565b5b60006200060789828a0162000501565b96505060206200061a89828a01620005c0565b95505060406200062d89828a0162000548565b94505060606200064089828a01620005a9565b935050608087015167ffffffffffffffff81111562000664576200066362000895565b5b6200067289828a0162000518565b92505060a06200068589828a0162000592565b9150509295509295509295565b60006200069e620006b1565b9050620006ac8282620007f2565b919050565b6000604051905090565b600067ffffffffffffffff821115620006d957620006d862000857565b5b602082029050919050565b600067ffffffffffffffff82111562000702576200070162000857565b5b6200070d826200089f565b9050602081019050919050565b6000620007278262000738565b9050919050565b6000819050919050565b600073ffffffffffffffffffffffffffffffffffffffff82169050919050565b6000819050919050565b600063ffffffff82169050919050565b600067ffffffffffffffff82169050919050565b60005b83811015620007a657808201518184015260208101905062000789565b83811115620007b6576000848401525b50505050565b60006002820490506001821680620007d557607f821691505b60208210811415620007ec57620007eb62000828565b5b50919050565b620007fd826200089f565b810181811067ffffffffffffffff821117156200081f576200081e62000857565b5b80604052505050565b7f4e487b7100000000000000000000000000000000000000000000000000000000600052602260045260246000fd5b7f4e487b7100000000000000000000000000000000000000000000000000000000600052604160045260246000fd5b600080fd5b600080fd5b600080fd5b600080fd5b600080fd5b6000601f19601f8301169050919050565b620008bb816200071a565b8114620008c757600080fd5b50565b620008d5816200072e565b8114620008e157600080fd5b50565b620008ef8162000758565b8114620008fb57600080fd5b50565b620009098162000762565b81146200091557600080fd5b50565b620009238162000772565b81146200092f57600080fd5b50565b60805160601c60a05160601c60c05160c01c60e0516101005160e01c61012051613aea6200099c60003960008181610ca70152610e4001526000610f1a01526000610ed601526000610ef701526000610e9a01526000818161087901526108cd0152613aea6000f3fe60806040526004361061014b5760003560e01c806370a08231116100b6578063a51cccf31161006f578063a51cccf31461047e578063aa152491146104bb578063b88d4fde146104d9578063c87b56dd14610502578063e985e9c51461053f578063f2fde38b1461057c5761014b565b806370a0823114610380578063715018a6146103bd5780637a5caab3146103d45780638da5cb5b146103ff57806395d89b411461042a578063a22cb465146104555761014b565b80633af25975116101085780633af25975146102705780633ccfd60b146102ad57806342842e0e146102c45780635dacf5f4146102ed5780636352211e146103185780636e02007d146103555761014b565b806301ffc9a71461015057806306fdde031461018d578063081812fc146101b8578063095ea7b3146101f55780631fe543e31461021e57806323b872dd14610247575b600080fd5b34801561015c57600080fd5b50610177600480360381019061017291906129a5565b6105a5565b6040516101849190612f3f565b60405180910390f35b34801561019957600080fd5b506101a2610687565b6040516101af9190612ff1565b60405180910390f35b3480156101c457600080fd5b506101df60048036038101906101da91906129ff565b610719565b6040516101ec9190612e94565b60405180910390f35b34801561020157600080fd5b5061021c60048036038101906102179190612965565b61075f565b005b34801561022a57600080fd5b5061024560048036038101906102409190612a59565b610877565b005b34801561025357600080fd5b5061026e6004803603810190610269919061284f565b610937565b005b34801561027c57600080fd5b50610297600480360381019061029291906129ff565b610997565b6040516102a49190612ff1565b60405180910390f35b3480156102b957600080fd5b506102c2610a47565b005b3480156102d057600080fd5b506102eb60048036038101906102e6919061284f565b610afb565b005b3480156102f957600080fd5b50610302610b1b565b60405161030f9190612f24565b60405180910390f35b34801561032457600080fd5b5061033f600480360381019061033a91906129ff565b610b46565b60405161034c9190612e94565b60405180910390f35b34801561036157600080fd5b5061036a610bcd565b60405161037791906131d3565b60405180910390f35b34801561038c57600080fd5b506103a760048036038101906103a291906127e2565b610bd7565b6040516103b491906131d3565b60405180910390f35b3480156103c957600080fd5b506103d2610c8f565b005b3480156103e057600080fd5b506103e9610ca3565b6040516103f691906131d3565b60405180910390f35b34801561040b57600080fd5b50610414610ccb565b6040516104219190612e94565b60405180910390f35b34801561043657600080fd5b5061043f610cf5565b60405161044c9190612ff1565b60405180910390f35b34801561046157600080fd5b5061047c60048036038101906104779190612925565b610d87565b005b34801561048a57600080fd5b506104a560048036038101906104a091906129ff565b610d9d565b6040516104b29190612fad565b60405180910390f35b6104c3610e3c565b6040516104d091906131d3565b60405180910390f35b3480156104e557600080fd5b5061050060048036038101906104fb91906128a2565b61103c565b005b34801561050e57600080fd5b50610529600480360381019061052491906129ff565b61109e565b6040516105369190612ff1565b60405180910390f35b34801561054b57600080fd5b506105666004803603810190610561919061280f565b6111b1565b6040516105739190612f3f565b60405180910390f35b34801561058857600080fd5b506105a3600480360381019061059e91906127e2565b611245565b005b60007f80ac58cd000000000000000000000000000000000000000000000000000000007bffffffffffffffffffffffffffffffffffffffffffffffffffffffff1916827bffffffffffffffffffffffffffffffffffffffffffffffffffffffff1916148061067057507f5b5e139f000000000000000000000000000000000000000000000000000000007bffffffffffffffffffffffffffffffffffffffffffffffffffffffff1916827bffffffffffffffffffffffffffffffffffffffffffffffffffffffff1916145b80610680575061067f826112c9565b5b9050919050565b6060600080546106969061348c565b80601f01602080910402602001604051908101604052809291908181526020018280546106c29061348c565b801561070f5780601f106106e45761010080835404028352916020019161070f565b820191906000526020600020905b8154815290600101906020018083116106f257829003601f168201915b5050505050905090565b600061072482611333565b6004600083815260200190815260200160002060009054906101000a900473ffffffffffffffffffffffffffffffffffffffff169050919050565b600061076a82610b46565b90508073ffffffffffffffffffffffffffffffffffffffff168373ffffffffffffffffffffffffffffffffffffffff1614156107db576040517f08c379a00000000000000000000000000000000000000000000000000000000081526004016107d290613193565b60405180910390fd5b8073ffffffffffffffffffffffffffffffffffffffff166107fa61137e565b73ffffffffffffffffffffffffffffffffffffffff16148061082957506108288161082361137e565b6111b1565b5b610868576040517f08c379a000000000000000000000000000000000000000000000000000000000815260040161085f906131b3565b60405180910390fd5b6108728383611386565b505050565b7f000000000000000000000000000000000000000000000000000000000000000073ffffffffffffffffffffffffffffffffffffffff163373ffffffffffffffffffffffffffffffffffffffff161461092957337f00000000000000000000000000000000000000000000000000000000000000006040517f1cf993f4000000000000000000000000000000000000000000000000000000008152600401610920929190612eaf565b60405180910390fd5b610933828261143f565b5050565b61094861094261137e565b826115dc565b610987576040517f08c379a000000000000000000000000000000000000000000000000000000000815260040161097e90613013565b60405180910390fd5b610992838383611671565b505050565b6060600982815481106109ad576109ac613625565b5b9060005260206000200180546109c29061348c565b80601f01602080910402602001604051908101604052809291908181526020018280546109ee9061348c565b8015610a3b5780601f10610a1057610100808354040283529160200191610a3b565b820191906000526020600020905b815481529060010190602001808311610a1e57829003601f168201915b50505050509050919050565b610a4f61196b565b600047905060003373ffffffffffffffffffffffffffffffffffffffff1682604051610a7a90612e7f565b60006040518083038185875af1925050503d8060008114610ab7576040519150601f19603f3d011682016040523d82523d6000602084013e610abc565b606091505b5050905080610af7576040517fca7e25b700000000000000000000000000000000000000000000000000000000815260040160405180910390fd5b5050565b610b168383836040518060200160405280600081525061103c565b505050565b610b23612591565b6040518060600160405280600a8152602001602881526020016064815250905090565b600080610b52836119e9565b9050600073ffffffffffffffffffffffffffffffffffffffff168173ffffffffffffffffffffffffffffffffffffffff161415610bc4576040517f08c379a0000000000000000000000000000000000000000000000000000000008152600401610bbb90613173565b60405180910390fd5b80915050919050565b6000600854905090565b60008073ffffffffffffffffffffffffffffffffffffffff168273ffffffffffffffffffffffffffffffffffffffff161415610c48576040517f08c379a0000000000000000000000000000000000000000000000000000000008152600401610c3f906130f3565b60405180910390fd5b600360008373ffffffffffffffffffffffffffffffffffffffff1673ffffffffffffffffffffffffffffffffffffffff168152602001908152602001600020549050919050565b610c9761196b565b610ca16000611a26565b565b60007f0000000000000000000000000000000000000000000000000000000000000000905090565b6000600760009054906101000a900473ffffffffffffffffffffffffffffffffffffffff16905090565b606060018054610d049061348c565b80601f0160208091040260200160405190810160405280929190818152602001828054610d309061348c565b8015610d7d5780601f10610d5257610100808354040283529160200191610d7d565b820191906000526020600020905b815481529060010190602001808311610d6057829003601f168201915b5050505050905090565b610d99610d9261137e565b8383611aec565b5050565b600080610da8610b1b565b905060005b6003811015610e0457818160038110610dc957610dc8613625565b5b6020020151841015610df157806002811115610de857610de76135c7565b5b92505050610e37565b8080610dfc906134ef565b915050610dad565b506040517f12806c9d00000000000000000000000000000000000000000000000000000000815260040160405180910390fd5b919050565b60007f0000000000000000000000000000000000000000000000000000000000000000341015610e98576040517f8aa224cd00000000000000000000000000000000000000000000000000000000815260040160405180910390fd5b7f000000000000000000000000000000000000000000000000000000000000000073ffffffffffffffffffffffffffffffffffffffff16635d3b1d307f00000000000000000000000000000000000000000000000000000000000000007f000000000000000000000000000000000000000000000000000000000000000060037f000000000000000000000000000000000000000000000000000000000000000060016040518663ffffffff1660e01b8152600401610f5b959493929190612f5a565b602060405180830381600087803b158015610f7557600080fd5b505af1158015610f89573d6000803e3d6000fd5b505050506040513d601f19601f82011682018060405250810190610fad9190612a2c565b905033600a600083815260200190815260200160002060006101000a81548173ffffffffffffffffffffffffffffffffffffffff021916908373ffffffffffffffffffffffffffffffffffffffff160217905550807ff873236e6cc0ecc5be1a9a35c95ee5b8d1ac4cc7bfef0cc5060391d6cc98e26b336040516110319190612e94565b60405180910390a290565b61104d61104761137e565b836115dc565b61108c576040517f08c379a000000000000000000000000000000000000000000000000000000000815260040161108390613013565b60405180910390fd5b61109884848484611c59565b50505050565b60606110a982611333565b60006006600084815260200190815260200160002080546110c99061348c565b80601f01602080910402602001604051908101604052809291908181526020018280546110f59061348c565b80156111425780601f1061111757610100808354040283529160200191611142565b820191906000526020600020905b81548152906001019060200180831161112557829003601f168201915b505050505090506000611153611cb5565b90506000815114156111695781925050506111ac565b60008251111561119e578082604051602001611186929190612e5b565b604051602081830303815290604052925050506111ac565b6111a784611ccc565b925050505b919050565b6000600560008473ffffffffffffffffffffffffffffffffffffffff1673ffffffffffffffffffffffffffffffffffffffff16815260200190815260200160002060008373ffffffffffffffffffffffffffffffffffffffff1673ffffffffffffffffffffffffffffffffffffffff16815260200190815260200160002060009054906101000a900460ff16905092915050565b61124d61196b565b600073ffffffffffffffffffffffffffffffffffffffff168173ffffffffffffffffffffffffffffffffffffffff1614156112bd576040517f08c379a00000000000000000000000000000000000000000000000000000000081526004016112b490613053565b60405180910390fd5b6112c681611a26565b50565b60007f01ffc9a7000000000000000000000000000000000000000000000000000000007bffffffffffffffffffffffffffffffffffffffffffffffffffffffff1916827bffffffffffffffffffffffffffffffffffffffffffffffffffffffff1916149050919050565b61133c81611d34565b61137b576040517f08c379a000000000000000000000000000000000000000000000000000000000815260040161137290613173565b60405180910390fd5b50565b600033905090565b816004600083815260200190815260200160002060006101000a81548173ffffffffffffffffffffffffffffffffffffffff021916908373ffffffffffffffffffffffffffffffffffffffff160217905550808273ffffffffffffffffffffffffffffffffffffffff166113f983610b46565b73ffffffffffffffffffffffffffffffffffffffff167f8c5be1e5ebec7d5bd14f71427d1e84f3dd0314c0f7b2291e5b200ac8c7c3b92560405160405180910390a45050565b6000600a600084815260200190815260200160002060009054906101000a900473ffffffffffffffffffffffffffffffffffffffff16905060006008549050600060648460008151811061149657611495613625565b5b60200260200101516114a89190613538565b905060006114b582610d9d565b90506114c18484611d75565b6115838360098360028111156114da576114d96135c7565b5b815481106114eb576114ea613625565b5b9060005260206000200180546115009061348c565b80601f016020809104026020016040519081016040528092919081815260200182805461152c9061348c565b80156115795780601f1061154e57610100808354040283529160200191611579565b820191906000526020600020905b81548152906001019060200180831161155c57829003601f168201915b5050505050611d93565b60086000815480929190611596906134ef565b91905055507f8a269f26b688e110e9cbd887d163dab35cae678fa353a0292de532c0cac1ecdc81856040516115cc929190612fc8565b60405180910390a1505050505050565b6000806115e883610b46565b90508073ffffffffffffffffffffffffffffffffffffffff168473ffffffffffffffffffffffffffffffffffffffff16148061162a575061162981856111b1565b5b8061166857508373ffffffffffffffffffffffffffffffffffffffff1661165084610719565b73ffffffffffffffffffffffffffffffffffffffff16145b91505092915050565b8273ffffffffffffffffffffffffffffffffffffffff1661169182610b46565b73ffffffffffffffffffffffffffffffffffffffff16146116e7576040517f08c379a00000000000000000000000000000000000000000000000000000000081526004016116de90613073565b60405180910390fd5b600073ffffffffffffffffffffffffffffffffffffffff168273ffffffffffffffffffffffffffffffffffffffff161415611757576040517f08c379a000000000000000000000000000000000000000000000000000000000815260040161174e906130b3565b60405180910390fd5b6117648383836001611e07565b8273ffffffffffffffffffffffffffffffffffffffff1661178482610b46565b73ffffffffffffffffffffffffffffffffffffffff16146117da576040517f08c379a00000000000000000000000000000000000000000000000000000000081526004016117d190613073565b60405180910390fd5b6004600082815260200190815260200160002060006101000a81549073ffffffffffffffffffffffffffffffffffffffff02191690556001600360008573ffffffffffffffffffffffffffffffffffffffff1673ffffffffffffffffffffffffffffffffffffffff168152602001908152602001600020600082825403925050819055506001600360008473ffffffffffffffffffffffffffffffffffffffff1673ffffffffffffffffffffffffffffffffffffffff16815260200190815260200160002060008282540192505081905550816002600083815260200190815260200160002060006101000a81548173ffffffffffffffffffffffffffffffffffffffff021916908373ffffffffffffffffffffffffffffffffffffffff160217905550808273ffffffffffffffffffffffffffffffffffffffff168473ffffffffffffffffffffffffffffffffffffffff167fddf252ad1be2c89b69c2b068fc378daa952ba7f163c4a11628f55a4df523b3ef60405160405180910390a46119668383836001611f2d565b505050565b61197361137e565b73ffffffffffffffffffffffffffffffffffffffff16611991610ccb565b73ffffffffffffffffffffffffffffffffffffffff16146119e7576040517f08c379a00000000000000000000000000000000000000000000000000000000081526004016119de90613153565b60405180910390fd5b565b60006002600083815260200190815260200160002060009054906101000a900473ffffffffffffffffffffffffffffffffffffffff169050919050565b6000600760009054906101000a900473ffffffffffffffffffffffffffffffffffffffff16905081600760006101000a81548173ffffffffffffffffffffffffffffffffffffffff021916908373ffffffffffffffffffffffffffffffffffffffff1602179055508173ffffffffffffffffffffffffffffffffffffffff168173ffffffffffffffffffffffffffffffffffffffff167f8be0079c531659141344cd1fd0a4f28419497f9722a3daafe3b4186f6b6457e060405160405180910390a35050565b8173ffffffffffffffffffffffffffffffffffffffff168373ffffffffffffffffffffffffffffffffffffffff161415611b5b576040517f08c379a0000000000000000000000000000000000000000000000000000000008152600401611b52906130d3565b60405180910390fd5b80600560008573ffffffffffffffffffffffffffffffffffffffff1673ffffffffffffffffffffffffffffffffffffffff16815260200190815260200160002060008473ffffffffffffffffffffffffffffffffffffffff1673ffffffffffffffffffffffffffffffffffffffff16815260200190815260200160002060006101000a81548160ff0219169083151502179055508173ffffffffffffffffffffffffffffffffffffffff168373ffffffffffffffffffffffffffffffffffffffff167f17307eab39ab6107e8899845ad3d59bd9653f200f220920489ca2b5937696c3183604051611c4c9190612f3f565b60405180910390a3505050565b611c64848484611671565b611c7084848484611f33565b611caf576040517f08c379a0000000000000000000000000000000000000000000000000000000008152600401611ca690613033565b60405180910390fd5b50505050565b606060405180602001604052806000815250905090565b6060611cd782611333565b6000611ce1611cb5565b90506000815111611d015760405180602001604052806000815250611d2c565b80611d0b846120ca565b604051602001611d1c929190612e5b565b6040516020818303038152906040525b915050919050565b60008073ffffffffffffffffffffffffffffffffffffffff16611d56836119e9565b73ffffffffffffffffffffffffffffffffffffffff1614159050919050565b611d8f8282604051806020016040528060008152506121a2565b5050565b611d9c82611d34565b611ddb576040517f08c379a0000000000000000000000000000000000000000000000000000000008152600401611dd290613113565b60405180910390fd5b80600660008481526020019081526020016000209080519060200190611e029291906125b3565b505050565b6001811115611f2757600073ffffffffffffffffffffffffffffffffffffffff168473ffffffffffffffffffffffffffffffffffffffff1614611e9b5780600360008673ffffffffffffffffffffffffffffffffffffffff1673ffffffffffffffffffffffffffffffffffffffff1681526020019081526020016000206000828254611e939190613341565b925050819055505b600073ffffffffffffffffffffffffffffffffffffffff168373ffffffffffffffffffffffffffffffffffffffff1614611f265780600360008573ffffffffffffffffffffffffffffffffffffffff1673ffffffffffffffffffffffffffffffffffffffff1681526020019081526020016000206000828254611f1e91906132eb565b925050819055505b5b50505050565b50505050565b6000611f548473ffffffffffffffffffffffffffffffffffffffff166121fd565b156120bd578373ffffffffffffffffffffffffffffffffffffffff1663150b7a02611f7d61137e565b8786866040518563ffffffff1660e01b8152600401611f9f9493929190612ed8565b602060405180830381600087803b158015611fb957600080fd5b505af1925050508015611fea57506040513d601f19601f82011682018060405250810190611fe791906129d2565b60015b61206d573d806000811461201a576040519150601f19603f3d011682016040523d82523d6000602084013e61201f565b606091505b50600081511415612065576040517f08c379a000000000000000000000000000000000000000000000000000000000815260040161205c90613033565b60405180910390fd5b805181602001fd5b63150b7a0260e01b7bffffffffffffffffffffffffffffffffffffffffffffffffffffffff1916817bffffffffffffffffffffffffffffffffffffffffffffffffffffffff1916149150506120c2565b600190505b949350505050565b6060600060016120d984612220565b01905060008167ffffffffffffffff8111156120f8576120f7613654565b5b6040519080825280601f01601f19166020018201604052801561212a5781602001600182028036833780820191505090505b509050600082602001820190505b600115612197578080600190039150507f3031323334353637383961626364656600000000000000000000000000000000600a86061a8153600a858161218157612180613598565b5b049450600085141561219257612197565b612138565b819350505050919050565b6121ac8383612373565b6121b96000848484611f33565b6121f8576040517f08c379a00000000000000000000000000000000000000000000000000000000081526004016121ef90613033565b60405180910390fd5b505050565b6000808273ffffffffffffffffffffffffffffffffffffffff163b119050919050565b600080600090507a184f03e93ff9f4daa797ed6e38ed64bf6a1f010000000000000000831061227e577a184f03e93ff9f4daa797ed6e38ed64bf6a1f010000000000000000838161227457612273613598565b5b0492506040810190505b6d04ee2d6d415b85acef810000000083106122bb576d04ee2d6d415b85acef810000000083816122b1576122b0613598565b5b0492506020810190505b662386f26fc1000083106122ea57662386f26fc1000083816122e0576122df613598565b5b0492506010810190505b6305f5e1008310612313576305f5e100838161230957612308613598565b5b0492506008810190505b612710831061233857612710838161232e5761232d613598565b5b0492506004810190505b6064831061235b576064838161235157612350613598565b5b0492506002810190505b600a831061236a576001810190505b80915050919050565b600073ffffffffffffffffffffffffffffffffffffffff168273ffffffffffffffffffffffffffffffffffffffff1614156123e3576040517f08c379a00000000000000000000000000000000000000000000000000000000081526004016123da90613133565b60405180910390fd5b6123ec81611d34565b1561242c576040517f08c379a000000000000000000000000000000000000000000000000000000000815260040161242390613093565b60405180910390fd5b61243a600083836001611e07565b61244381611d34565b15612483576040517f08c379a000000000000000000000000000000000000000000000000000000000815260040161247a90613093565b60405180910390fd5b6001600360008473ffffffffffffffffffffffffffffffffffffffff1673ffffffffffffffffffffffffffffffffffffffff16815260200190815260200160002060008282540192505081905550816002600083815260200190815260200160002060006101000a81548173ffffffffffffffffffffffffffffffffffffffff021916908373ffffffffffffffffffffffffffffffffffffffff160217905550808273ffffffffffffffffffffffffffffffffffffffff16600073ffffffffffffffffffffffffffffffffffffffff167fddf252ad1be2c89b69c2b068fc378daa952ba7f163c4a11628f55a4df523b3ef60405160405180910390a461258d600083836001611f2d565b5050565b6040518060600160405280600390602082028036833780820191505090505090565b8280546125bf9061348c565b90600052602060002090601f0160209004810192826125e15760008555612628565b82601f106125fa57805160ff1916838001178555612628565b82800160010185558215612628579182015b8281111561262757825182559160200191906001019061260c565b5b5090506126359190612639565b5090565b5b8082111561265257600081600090555060010161263a565b5090565b600061266961266484613213565b6131ee565b9050808382526020820190508285602086028201111561268c5761268b613688565b5b60005b858110156126bc57816126a288826127b8565b84526020840193506020830192505060018101905061268f565b5050509392505050565b60006126d96126d48461323f565b6131ee565b9050828152602081018484840111156126f5576126f461368d565b5b61270084828561344a565b509392505050565b60008135905061271781613a58565b92915050565b600082601f83011261273257612731613683565b5b8135612742848260208601612656565b91505092915050565b60008135905061275a81613a6f565b92915050565b60008135905061276f81613a86565b92915050565b60008151905061278481613a86565b92915050565b600082601f83011261279f5761279e613683565b5b81356127af8482602086016126c6565b91505092915050565b6000813590506127c781613a9d565b92915050565b6000815190506127dc81613a9d565b92915050565b6000602082840312156127f8576127f7613697565b5b600061280684828501612708565b91505092915050565b6000806040838503121561282657612825613697565b5b600061283485828601612708565b925050602061284585828601612708565b9150509250929050565b60008060006060848603121561286857612867613697565b5b600061287686828701612708565b935050602061288786828701612708565b9250506040612898868287016127b8565b9150509250925092565b600080600080608085870312156128bc576128bb613697565b5b60006128ca87828801612708565b94505060206128db87828801612708565b93505060406128ec878288016127b8565b925050606085013567ffffffffffffffff81111561290d5761290c613692565b5b6129198782880161278a565b91505092959194509250565b6000806040838503121561293c5761293b613697565b5b600061294a85828601612708565b925050602061295b8582860161274b565b9150509250929050565b6000806040838503121561297c5761297b613697565b5b600061298a85828601612708565b925050602061299b858286016127b8565b9150509250929050565b6000602082840312156129bb576129ba613697565b5b60006129c984828501612760565b91505092915050565b6000602082840312156129e8576129e7613697565b5b60006129f684828501612775565b91505092915050565b600060208284031215612a1557612a14613697565b5b6000612a23848285016127b8565b91505092915050565b600060208284031215612a4257612a41613697565b5b6000612a50848285016127cd565b91505092915050565b60008060408385031215612a7057612a6f613697565b5b6000612a7e858286016127b8565b925050602083013567ffffffffffffffff811115612a9f57612a9e613692565b5b612aab8582860161271d565b9150509250929050565b6000612ac18383612e1f565b60208301905092915050565b612ad681613375565b82525050565b612ae58161327a565b612aef81846132a8565b9250612afa82613270565b8060005b83811015612b2b578151612b128782612ab5565b9650612b1d8361329b565b925050600181019050612afe565b505050505050565b612b3c81613387565b82525050565b612b4b81613393565b82525050565b6000612b5c82613285565b612b6681856132b3565b9350612b76818560208601613459565b612b7f8161369c565b840191505092915050565b612b9381613438565b82525050565b6000612ba482613290565b612bae81856132cf565b9350612bbe818560208601613459565b612bc78161369c565b840191505092915050565b6000612bdd82613290565b612be781856132e0565b9350612bf7818560208601613459565b80840191505092915050565b6000612c10602d836132cf565b9150612c1b826136ad565b604082019050919050565b6000612c336032836132cf565b9150612c3e826136fc565b604082019050919050565b6000612c566026836132cf565b9150612c618261374b565b604082019050919050565b6000612c796025836132cf565b9150612c848261379a565b604082019050919050565b6000612c9c601c836132cf565b9150612ca7826137e9565b602082019050919050565b6000612cbf6024836132cf565b9150612cca82613812565b604082019050919050565b6000612ce26019836132cf565b9150612ced82613861565b602082019050919050565b6000612d056029836132cf565b9150612d108261388a565b604082019050919050565b6000612d28602e836132cf565b9150612d33826138d9565b604082019050919050565b6000612d4b6020836132cf565b9150612d5682613928565b602082019050919050565b6000612d6e6020836132cf565b9150612d7982613951565b602082019050919050565b6000612d916018836132cf565b9150612d9c8261397a565b602082019050919050565b6000612db46021836132cf565b9150612dbf826139a3565b604082019050919050565b6000612dd76000836132c4565b9150612de2826139f2565b600082019050919050565b6000612dfa603d836132cf565b9150612e05826139f5565b604082019050919050565b612e19816133dc565b82525050565b612e288161340a565b82525050565b612e378161340a565b82525050565b612e4681613414565b82525050565b612e5581613424565b82525050565b6000612e678285612bd2565b9150612e738284612bd2565b91508190509392505050565b6000612e8a82612dca565b9150819050919050565b6000602082019050612ea96000830184612acd565b92915050565b6000604082019050612ec46000830185612acd565b612ed16020830184612acd565b9392505050565b6000608082019050612eed6000830187612acd565b612efa6020830186612acd565b612f076040830185612e2e565b8181036060830152612f198184612b51565b905095945050505050565b6000606082019050612f396000830184612adc565b92915050565b6000602082019050612f546000830184612b33565b92915050565b600060a082019050612f6f6000830188612b42565b612f7c6020830187612e4c565b612f896040830186612e10565b612f966060830185612e3d565b612fa36080830184612e3d565b9695505050505050565b6000602082019050612fc26000830184612b8a565b92915050565b6000604082019050612fdd6000830185612b8a565b612fea6020830184612acd565b9392505050565b6000602082019050818103600083015261300b8184612b99565b905092915050565b6000602082019050818103600083015261302c81612c03565b9050919050565b6000602082019050818103600083015261304c81612c26565b9050919050565b6000602082019050818103600083015261306c81612c49565b9050919050565b6000602082019050818103600083015261308c81612c6c565b9050919050565b600060208201905081810360008301526130ac81612c8f565b9050919050565b600060208201905081810360008301526130cc81612cb2565b9050919050565b600060208201905081810360008301526130ec81612cd5565b9050919050565b6000602082019050818103600083015261310c81612cf8565b9050919050565b6000602082019050818103600083015261312c81612d1b565b9050919050565b6000602082019050818103600083015261314c81612d3e565b9050919050565b6000602082019050818103600083015261316c81612d61565b9050919050565b6000602082019050818103600083015261318c81612d84565b9050919050565b600060208201905081810360008301526131ac81612da7565b9050919050565b600060208201905081810360008301526131cc81612ded565b9050919050565b60006020820190506131e86000830184612e2e565b92915050565b60006131f8613209565b905061320482826134be565b919050565b6000604051905090565b600067ffffffffffffffff82111561322e5761322d613654565b5b602082029050602081019050919050565b600067ffffffffffffffff82111561325a57613259613654565b5b6132638261369c565b9050602081019050919050565b6000819050919050565b600060039050919050565b600081519050919050565b600081519050919050565b6000602082019050919050565b600081905092915050565b600082825260208201905092915050565b600081905092915050565b600082825260208201905092915050565b600081905092915050565b60006132f68261340a565b91506133018361340a565b9250827fffffffffffffffffffffffffffffffffffffffffffffffffffffffffffffffff0382111561333657613335613569565b5b828201905092915050565b600061334c8261340a565b91506133578361340a565b92508282101561336a57613369613569565b5b828203905092915050565b6000613380826133ea565b9050919050565b60008115159050919050565b6000819050919050565b60007fffffffff0000000000000000000000000000000000000000000000000000000082169050919050565b60008190506133d782613a44565b919050565b600061ffff82169050919050565b600073ffffffffffffffffffffffffffffffffffffffff82169050919050565b6000819050919050565b600063ffffffff82169050919050565b600067ffffffffffffffff82169050919050565b6000613443826133c9565b9050919050565b82818337600083830152505050565b60005b8381101561347757808201518184015260208101905061345c565b83811115613486576000848401525b50505050565b600060028204905060018216806134a457607f821691505b602082108114156134b8576134b76135f6565b5b50919050565b6134c78261369c565b810181811067ffffffffffffffff821117156134e6576134e5613654565b5b80604052505050565b60006134fa8261340a565b91507fffffffffffffffffffffffffffffffffffffffffffffffffffffffffffffffff82141561352d5761352c613569565b5b600182019050919050565b60006135438261340a565b915061354e8361340a565b92508261355e5761355d613598565b5b828206905092915050565b7f4e487b7100000000000000000000000000000000000000000000000000000000600052601160045260246000fd5b7f4e487b7100000000000000000000000000000000000000000000000000000000600052601260045260246000fd5b7f4e487b7100000000000000000000000000000000000000000000000000000000600052602160045260246000fd5b7f4e487b7100000000000000000000000000000000000000000000000000000000600052602260045260246000fd5b7f4e487b7100000000000000000000000000000000000000000000000000000000600052603260045260246000fd5b7f4e487b7100000000000000000000000000000000000000000000000000000000600052604160045260246000fd5b600080fd5b600080fd5b600080fd5b600080fd5b600080fd5b6000601f19601f8301169050919050565b7f4552433732313a2063616c6c6572206973206e6f7420746f6b656e206f776e6560008201527f72206f7220617070726f76656400000000000000000000000000000000000000602082015250565b7f4552433732313a207472616e7366657220746f206e6f6e20455243373231526560008201527f63656976657220696d706c656d656e7465720000000000000000000000000000602082015250565b7f4f776e61626c653a206e6577206f776e657220697320746865207a65726f206160008201527f6464726573730000000000000000000000000000000000000000000000000000602082015250565b7f4552433732313a207472616e736665722066726f6d20696e636f72726563742060008201527f6f776e6572000000000000000000000000000000000000000000000000000000602082015250565b7f4552433732313a20746f6b656e20616c7265616479206d696e74656400000000600082015250565b7f4552433732313a207472616e7366657220746f20746865207a65726f2061646460008201527f7265737300000000000000000000000000000000000000000000000000000000602082015250565b7f4552433732313a20617070726f766520746f2063616c6c657200000000000000600082015250565b7f4552433732313a2061646472657373207a65726f206973206e6f74206120766160008201527f6c6964206f776e65720000000000000000000000000000000000000000000000602082015250565b7f45524337323155524953746f726167653a2055524920736574206f66206e6f6e60008201527f6578697374656e7420746f6b656e000000000000000000000000000000000000602082015250565b7f4552433732313a206d696e7420746f20746865207a65726f2061646472657373600082015250565b7f4f776e61626c653a2063616c6c6572206973206e6f7420746865206f776e6572600082015250565b7f4552433732313a20696e76616c696420746f6b656e2049440000000000000000600082015250565b7f4552433732313a20617070726f76616c20746f2063757272656e74206f776e6560008201527f7200000000000000000000000000000000000000000000000000000000000000602082015250565b50565b7f4552433732313a20617070726f76652063616c6c6572206973206e6f7420746f60008201527f6b656e206f776e6572206f7220617070726f76656420666f7220616c6c000000602082015250565b60038110613a5557613a546135c7565b5b50565b613a6181613375565b8114613a6c57600080fd5b50565b613a7881613387565b8114613a8357600080fd5b50565b613a8f8161339d565b8114613a9a57600080fd5b50565b613aa68161340a565b8114613ab157600080fd5b5056fea264697066735822122001692ebea2237d6d38fab0d5615d4c2e802f11b225d7a35e1fd5fd05a9f4c41664736f6c63430008070033",
  "devdoc": {
    "kind": "dev",
    "methods": {
      "approve(address,uint256)": {
        "details": "See {IERC721-approve}."
      },
      "balanceOf(address)": {
        "details": "See {IERC721-balanceOf}."
      },
      "getApproved(uint256)": {
        "details": "See {IERC721-getApproved}."
      },
      "isApprovedForAll(address,address)": {
        "details": "See {IERC721-isApprovedForAll}."
      },
      "name()": {
        "details": "See {IERC721Metadata-name}."
      },
      "owner()": {
        "details": "Returns the address of the current owner."
      },
      "ownerOf(uint256)": {
        "details": "See {IERC721-ownerOf}."
      },
      "renounceOwnership()": {
        "details": "Leaves the contract without owner. It will not be possible to call `onlyOwner` functions anymore. Can only be called by the current owner. NOTE: Renouncing ownership will leave the contract without an owner, thereby removing any functionality that is only available to the owner."
      },
      "safeTransferFrom(address,address,uint256)": {
        "details": "See {IERC721-safeTransferFrom}."
      },
      "safeTransferFrom(address,address,uint256,bytes)": {
        "details": "See {IERC721-safeTransferFrom}."
      },
      "setApprovalForAll(address,bool)": {
        "details": "See {IERC721-setApprovalForAll}."
      },
      "supportsInterface(bytes4)": {
        "details": "See {IERC165-supportsInterface}."
      },
      "symbol()": {
        "details": "See {IERC721Metadata-symbol}."
      },
      "tokenURI(uint256)": {
        "details": "See {IERC721Metadata-tokenURI}."
      },
      "transferFrom(address,address,uint256)": {
        "details": "See {IERC721-transferFrom}."
      },
      "transferOwnership(address)": {
        "details": "Transfers ownership of the contract to a new account (`newOwner`). Can only be called by the current owner."
      }
    },
    "version": 1
  },
  "userdoc": {
    "kind": "user",
    "methods": {},
    "version": 1
  },
  "storageLayout": {
    "storage": [
      {
        "astId": 292,
        "contract": "contracts/RandomIpfsNft.sol:RandomIpfsNft",
        "label": "_name",
        "offset": 0,
        "slot": "0",
        "type": "t_string_storage"
      },
      {
        "astId": 294,
        "contract": "contracts/RandomIpfsNft.sol:RandomIpfsNft",
        "label": "_symbol",
        "offset": 0,
        "slot": "1",
        "type": "t_string_storage"
      },
      {
        "astId": 298,
        "contract": "contracts/RandomIpfsNft.sol:RandomIpfsNft",
        "label": "_owners",
        "offset": 0,
        "slot": "2",
        "type": "t_mapping(t_uint256,t_address)"
      },
      {
        "astId": 302,
        "contract": "contracts/RandomIpfsNft.sol:RandomIpfsNft",
        "label": "_balances",
        "offset": 0,
        "slot": "3",
        "type": "t_mapping(t_address,t_uint256)"
      },
      {
        "astId": 306,
        "contract": "contracts/RandomIpfsNft.sol:RandomIpfsNft",
        "label": "_tokenApprovals",
        "offset": 0,
        "slot": "4",
        "type": "t_mapping(t_uint256,t_address)"
      },
      {
        "astId": 312,
        "contract": "contracts/RandomIpfsNft.sol:RandomIpfsNft",
        "label": "_operatorApprovals",
        "offset": 0,
        "slot": "5",
        "type": "t_mapping(t_address,t_mapping(t_address,t_bool))"
      },
      {
        "astId": 1358,
        "contract": "contracts/RandomIpfsNft.sol:RandomIpfsNft",
        "label": "_tokenURIs",
        "offset": 0,
        "slot": "6",
        "type": "t_mapping(t_uint256,t_string_storage)"
      },
      {
        "astId": 161,
        "contract": "contracts/RandomIpfsNft.sol:RandomIpfsNft",
        "label": "_owner",
        "offset": 0,
        "slot": "7",
        "type": "t_address"
      },
      {
        "astId": 2964,
        "contract": "contracts/RandomIpfsNft.sol:RandomIpfsNft",
        "label": "s_tokenCounter",
        "offset": 0,
        "slot": "8",
        "type": "t_uint256"
      },
      {
        "astId": 2970,
        "contract": "contracts/RandomIpfsNft.sol:RandomIpfsNft",
        "label": "s_dogTokenUris",
        "offset": 0,
        "slot": "9",
        "type": "t_array(t_string_storage)dyn_storage"
      },
      {
        "astId": 2976,
        "contract": "contracts/RandomIpfsNft.sol:RandomIpfsNft",
        "label": "s_requestIdToSender",
        "offset": 0,
        "slot": "10",
        "type": "t_mapping(t_uint256,t_address)"
      }
    ],
    "types": {
      "t_address": {
        "encoding": "inplace",
        "label": "address",
        "numberOfBytes": "20"
      },
      "t_array(t_string_storage)dyn_storage": {
        "base": "t_string_storage",
        "encoding": "dynamic_array",
        "label": "string[]",
        "numberOfBytes": "32"
      },
      "t_bool": {
        "encoding": "inplace",
        "label": "bool",
        "numberOfBytes": "1"
      },
      "t_mapping(t_address,t_bool)": {
        "encoding": "mapping",
        "key": "t_address",
        "label": "mapping(address => bool)",
        "numberOfBytes": "32",
        "value": "t_bool"
      },
      "t_mapping(t_address,t_mapping(t_address,t_bool))": {
        "encoding": "mapping",
        "key": "t_address",
        "label": "mapping(address => mapping(address => bool))",
        "numberOfBytes": "32",
        "value": "t_mapping(t_address,t_bool)"
      },
      "t_mapping(t_address,t_uint256)": {
        "encoding": "mapping",
        "key": "t_address",
        "label": "mapping(address => uint256)",
        "numberOfBytes": "32",
        "value": "t_uint256"
      },
      "t_mapping(t_uint256,t_address)": {
        "encoding": "mapping",
        "key": "t_uint256",
        "label": "mapping(uint256 => address)",
        "numberOfBytes": "32",
        "value": "t_address"
      },
      "t_mapping(t_uint256,t_string_storage)": {
        "encoding": "mapping",
        "key": "t_uint256",
        "label": "mapping(uint256 => string)",
        "numberOfBytes": "32",
        "value": "t_string_storage"
      },
      "t_string_storage": {
        "encoding": "bytes",
        "label": "string",
        "numberOfBytes": "32"
      },
      "t_uint256": {
        "encoding": "inplace",
        "label": "uint256",
        "numberOfBytes": "32"
      }
    }
  }
}